:020000040000FA
:0400000081EF00F09C
:10000800400128012801280140002801400028015A
:100018002801280128012801280128012801280190
:10002800280140004000400028012801280128013B
:100038002801280128013901E800280128012801A0
:100048002801280128012801400040002801280132
:100058002801280128014000280128012801280139
:100068002801280128012801280128012801280140
:100078002801280128012801400028012801280119
:100088002801280128012801280128012801280120
:1000980028012801280128014000280140004000CB
:1000A8002801280128012801280128012801280100
:1000B80028012801280128012801280128012801F0
:1000C80028012801280128012801280128012801E0
:1000D80028012801280128012801280128012801D0
:1000E800400028012801280140004000400040004D
:1000F8002801280128012801FF0074EF01F08083FE
:1001080086898C8F9295989B9EA2A5A7AAADB0B31D
:10011800B6B9BCBEC1C4C6C9CBCED0D3D5D7DADC3C
:10012800DEE0E2E4E6E8EAEBEDEEF0F1F3F4F5F612
:10013800F8F9FAFAFBFCFDFDFEFEFEFFFFFFFFFFEC
:10014800FFFFFEFEFEFDFDFCFBFAFAF9F8F6F5F4FA
:10015800F3F1F0EEEDEBEAE8E6E4E2E0DEDCDAD734
:10016800D5D3D0CECBC9C6C4C1BEBCB9B6B3B0AD69
:10017800AAA7A5A29E9B9895928F8C898683807C3E
:10018800797673706D6A6764615D5A5855524F4C41
:10019800494643413E3B393634312F2C2A28252302
:1001A800211F1D1B1917151412110F0E0C0B0A090C
:1001B8000706050504030202010101000000000012
:1001C80000000101010202030405050607090A0BE4
:1001D8000C0E0F1112141517191B1D1F212325288A
:1001E8002A2C2F313436393B3E414346494C4F5235
:1001F80055585A5D6164676A6D707376797CD890DA
:100208004734D96E4834DA6E1D0ED926050EDA2227
:10021800610078F34FF5610074F350F5010E516EEB
:10022800A6EC01F0454A462AD8904734D96E48349E
:10023800DA6E010ED926050EDA224550DE1807E1DE
:100248004650DE18D8A42BEF01F02DEF01F04CEF4B
:1002580001F0474A482A000E466E000E456E000E11
:10026800576E000E566E000E506E000E4F6E010E49
:10027800516EA6EC01F0564A572A575009E1320E42
:10028800565CD8A04AEF01F04CEF01F037EF01F0CF
:100298000F0E47184810D8A454EF01F056EF01F09C
:1002A80073EF01F0000E486E000E476E000E596E97
:1002B800000E586E000E506E000E4F6E010E516EFD
:1002C800A6EC01F0584A592AF40E585C010E595808
:1002D800D8A071EF01F073EF01F05EEF01F01200AA
:1002E800060EF66E010EF76E000EF86E01EE00F2C5
:1002F80010EE00F10900F5C4EEF4E550E150FAE122
:10030800E250F8E1DA0EF66E030EF76E000EF86EA4
:1003180001EE01F110EE38F00900F5C4EEF4E550F5
:10032800E150FAE101EE39F1150EEE6AE806FDE159
:100338000401080E5D6F000E5E6F000E5F6F000116
:1003480023EF02F003011E91800E505CD8A0AFEF9E
:1003580001F0B1EF01F0B4EF01F07F0E506E4F687D
:100368004F1C526E501C536E53504B6E52C54AF57B
:1003780061002CF51DF3610028F51CF34C905150D9
:10038800D8B4C9EF01F0CBEF01F0CCEF01F04C800D
:10039800B198A1881E81120061002CF51DF361003F
:1003A80028F51CF3000E4924D96EDA6A060EDA2203
:1003B800DF5000017D6F040E4926B1984CB0E7EF7D
:1003C80001F0E9EF01F0ECEF01F0A19803011E91B3
:1003D80011000002000200020002000200020004F4
:1003E80000020002000200020002000200043C00B9
:1003F8003C00280028002400240028002D002D009F
:100408002F002F00350035003C00000E416E000E15
:10041800426E000E436E000E446E000E3D6E000EDE
:100428003E6E000E3F6E000E406E7D0E0301236F80
:10043800010E266FB196F00E246FA18612004D8E24
:1004480082EC02F05DEC02F07BEC02F009EC02F0C9
:1004580039EC02F04D9E03EC01F0BE9E68EC02F010
:10046800BE8E2FEF02F081EF00F0C00EBE16900E88
:1004780003011A6F540E1B6F000E1F6F010E216FC0
:10048800310E1E6F000E506E100E4F6E010E516E23
:06049800A6EC01F01200C9
:1004A000610060F34EF5010E3926000E3A223B2220
:1004B0003C22610038F5D8F41100000E0401006FF1
:1004C000000EC66EA00E00017F6F000E7D6F120041
:1004D0004D8C4DBC6EEF02F070EF02F069EF02F050
:0204E000120008
:1004E400B1964D9C010E4126000E42224322442225
:0A04F4001100D68AD68ED68C1200B5
:06050000AE901100120094
:020000040020DA
:10000000FF0FFF0FFF0FFF0FFF0FFF0FFF0FFF0F80
:10001000FF0FFF0FFF0FFF0FFF0FFF0FFF0FFF0F70
:020000040030CA
:0A0000008CFEFFFC9FFFFFFFFFFFD7
:00000001FF
