:020000040000FA
:04000000FEEFFFF020
:020000040001F9
:10FF3C0012001200120001EE01F10E0EEE6AE8063C
:10FF4C00FDE10001C7EFFFF0000ECE6E800EBE6E1D
:10FF5C00000ECF6E000E0401006FFE0EC66E120076
:10FF6C00000E096E000E0A6E000E0B6E000E0C6E6B
:10FF7C00000E056E000E066E000E076E000E086E6B
:10FF8C001200048E9EECFFF0B6ECFFF0AAECFFF032
:10FF9C00A0ECFFF0D8ECFFF09FECFFF0D0EFFFF0FF
:10FFAC00FEEFFFF0800E0F6E0D50D8A4E0EFFFF0C7
:10FFBC00E2EFFFF0EDEFFFF0CFA0E7EFFFF0E9EF9E
:10FFCC00FFF0FDEFFFF0010E0D6EFDEFFFF00D04E5
:10FFDC00D8A4F3EFFFF0F5EFFFF0FDEFFFF00F2AE1
:10FFEC000F508009BE6E020E0D6EFDEFFFF0120079
:04FFFC00A1EFFFF082
:020000040020DA
:10000000FF0FFF0FFF0FFF0FFF0FFF0FFF0FFF0F80
:10001000FF0FFF0FFF0FFF0FFF0FFF0FFF0FFF0F70
:020000040030CA
:0A0000008CFEFFFC9FFFFFFFFFFFD7
:00000001FF
