:020000040000FA
:04000000FEEFFFF020
:020000040001F9
:10FEF9008012001200400EBE6E000E0401006F0059
:10FF09000EC66E120003011A9F000E196F000E181B
:10FF19006FB19E1A8F1200900E03011A6F5E0E1BAD
:10FF29006F000E196F000E186F1200000E096E0097
:10FF39000E0A6E000E0B6E000E0C6E000E056E00A2
:10FF49000E066E000E076E000E086E1200F90EF610
:10FF59006EFE0EF76E010EF86E09006100D4F31201
:10FF6900F501EE01F10D0EEE6AE806FDE10001DC96
:10FF7900EFFFF0B1AEC3EFFFF0C5EFFFF0DBEFFF2E
:10FF8900F0BF0E1260CBEFFFF0CDEFFFF0D0EFFF27
:10FF9900F0122AD2EFFFF0800E126E610048F4BE13
:10FFA900F4030E0F6EE80E0E6E87ECFFF0120004DC
:10FFB9008E7DECFFF09AECFFF07FECFFF090ECFF08
:10FFC900F0BEECFFF0800EBE6E000E0F6E010E0E3D
:10FFD9006E87ECFFF0B1AEF4EFFFF0F6EFFFF0EF54
:10FFE900EFFFF0BE9E7EECFFF0BE8EE5EFFFF0FE68
:07FFF900EFFFF0ABEFFFF09A
:020000040020DA
:10000000FF0FFF0FFF0FFF0FFF0FFF0FFF0FFF0F80
:10001000FF0FFF0FFF0FFF0FFF0FFF0FFF0FFF0F70
:020000040030CA
:0A0000008CFEFFFC9FFFFFFFFFFFD7
:00000001FF
