:020000040000FA
:04000000FEEFFFF020
:020000040001F9
:10FF17008012001200000EBE6E000E0401006F007A
:10FF27000EC66E120003011A9F000E186F000E19FD
:10FF37006FB19E1A8F1200900E03011A6F440E1BA9
:10FF47006F000E196F000E186F1200000E096E0079
:10FF57000E0A6E000E0B6E000E0C6E000E056E0084
:10FF67000E066E000E076E000E086E1200BF0E1210
:10FF770060C0EFFFF0C2EFFFF0C5EFFFF0122AC736
:10FF8700EFFFF0800E126E610048F4BEF412001706
:10FF97000EF66EFF0EF76E010EF86E09006100D4C3
:10FFA700F312F501EE01F10D0EEE6AE806FDE10030
:10FFB70001DEEFFFF0048E8CECFFF0A9ECFFF08E72
:10FFC700ECFFF09FECFFF0BAECFFF08DECFFF003D5
:10FFD7000E0F6EE80E0E6E96ECFFF0B1AEF6EFFF69
:10FFE700F0F8EFFFF0F1EFFFF08DECFFF0E7EFFF38
:09FFF700F0FEEFFFF0CBEFFFF08C
:020000040020DA
:10000000FF0FFF0FFF0FFF0FFF0FFF0FFF0FFF0F80
:10001000FF0FFF0FFF0FFF0FFF0FFF0FFF0FFF0F70
:020000040030CA
:0A0000008CFEFFFC9FFFFFFFFFFFD7
:00000001FF
